{
  "contractName": "Phoenix",
  "abi": [
    {
      "constant": true,
      "inputs": [
        {
          "name": "",
          "type": "address"
        }
      ],
      "name": "insuranceTakers",
      "outputs": [
        {
          "name": "banned",
          "type": "bool"
        },
        {
          "name": "validAccount",
          "type": "bool"
        },
        {
          "name": "lastPayment",
          "type": "uint256"
        }
      ],
      "payable": false,
      "stateMutability": "view",
      "type": "function"
    },
    {
      "payable": true,
      "stateMutability": "payable",
      "type": "fallback"
    },
    {
      "anonymous": false,
      "inputs": [
        {
          "indexed": false,
          "name": "_log",
          "type": "string"
        }
      ],
      "name": "LogEvent",
      "type": "event"
    },
    {
      "constant": false,
      "inputs": [],
      "name": "makeInsurance",
      "outputs": [],
      "payable": true,
      "stateMutability": "payable",
      "type": "function"
    },
    {
      "constant": true,
      "inputs": [
        {
          "name": "insuranceTaker",
          "type": "address"
        }
      ],
      "name": "isInsured",
      "outputs": [
        {
          "name": "insured",
          "type": "bool"
        }
      ],
      "payable": false,
      "stateMutability": "view",
      "type": "function"
    },
    {
      "constant": false,
      "inputs": [],
      "name": "getCurrentBalance",
      "outputs": [
        {
          "name": "amount",
          "type": "uint256"
        }
      ],
      "payable": false,
      "stateMutability": "nonpayable",
      "type": "function"
    },
    {
      "constant": false,
      "inputs": [
        {
          "name": "insuranceTaker",
          "type": "address"
        }
      ],
      "name": "getAmountFrom",
      "outputs": [],
      "payable": true,
      "stateMutability": "payable",
      "type": "function"
    },
    {
      "constant": false,
      "inputs": [],
      "name": "claim",
      "outputs": [],
      "payable": false,
      "stateMutability": "nonpayable",
      "type": "function"
    }
  ],
  "bytecode": "0x608060405234801561001057600080fd5b506106ff806100206000396000f300608060405260043610610078576000357c0100000000000000000000000000000000000000000000000000000000900463ffffffff1680630614bb3d1461008357806307ad0794146100f05780634e71d92d146101265780639ba29d6d1461013d578063a574971014610198578063e50bae81146101c3575b610081336101cd565b005b34801561008f57600080fd5b506100c4600480360381019080803573ffffffffffffffffffffffffffffffffffffffff16906020019092919050505061035a565b604051808415151515815260200183151515158152602001828152602001935050505060405180910390f35b610124600480360381019080803573ffffffffffffffffffffffffffffffffffffffff1690602001909291905050506101cd565b005b34801561013257600080fd5b5061013b61039e565b005b34801561014957600080fd5b5061017e600480360381019080803573ffffffffffffffffffffffffffffffffffffffff16906020019092919050505061046c565b604051808215151515815260200191505060405180910390f35b3480156101a457600080fd5b506101ad6104e4565b6040518082815260200191505060405180910390f35b6101cb61056b565b005b7f0f9302c81771c0eee3c21199d1d5510ce78a68962d32a182bd71b8fb22a9ff1d60405180806020018281038252600d8152602001807f47657474696e67206d6f6e65790000000000000000000000000000000000000081525060200191505060405180910390a167016345785d8a0000341115156102da576040517f08c379a000000000000000000000000000000000000000000000000000000000815260040180806020018281038252602a8152602001807f4e65656420746f2073656e6420616e20616d6f756e742062696767657220746881526020017f616e20302e31204554480000000000000000000000000000000000000000000081525060400191505060405180910390fd5b6102e38161046c565b1515610357576040517f08c379a00000000000000000000000000000000000000000000000000000000081526004018080602001828103825260138152602001807f436865636b696e6720696620696e73757265640000000000000000000000000081525060200191505060405180910390fd5b50565b60006020528060005260406000206000915090508060000160009054906101000a900460ff16908060000160019054906101000a900460ff16908060010154905083565b6103a73361046c565b151561041b576040517f08c379a000000000000000000000000000000000000000000000000000000000815260040180806020018281038252601e8152602001807f436865636b696e6720696620696e737572656420696e20636c61696d2829000081525060200191505060405180910390fd5b3373ffffffffffffffffffffffffffffffffffffffff166108fc67016345785d8a00009081150290604051600060405180830381858888f19350505050158015610469573d6000803e3d6000fd5b50565b6000806000808473ffffffffffffffffffffffffffffffffffffffff1673ffffffffffffffffffffffffffffffffffffffff16815260200190815260200160002090508060000160009054906101000a900460ff161580156104dc57508060000160019054906101000a900460ff165b915050919050565b60007f0f9302c81771c0eee3c21199d1d5510ce78a68962d32a182bd71b8fb22a9ff1d6040518080602001828103825260138152602001807f4765742063757272656e742062616c616e63650000000000000000000000000081525060200191505060405180910390a13073ffffffffffffffffffffffffffffffffffffffff1631905090565b60008060003373ffffffffffffffffffffffffffffffffffffffff1673ffffffffffffffffffffffffffffffffffffffff16815260200190815260200160002090508060000160009054906101000a900460ff16151515610634576040517f08c379a00000000000000000000000000000000000000000000000000000000081526004018080602001828103825260148152602001807f53686f756c64206e6f742062652062616e6e656400000000000000000000000081525060200191505060405180910390fd5b67016345785d8a0000341115156106b3576040517f08c379a000000000000000000000000000000000000000000000000000000000815260040180806020018281038252601f8152602001807f53686f756c642062652067726561746572207468616e2031653137207765690081525060200191505060405180910390fd5b60018160000160016101000a81548160ff021916908315150217905550505600a165627a7a72305820fd1e4fb2c0c602aa1b211baaa6406f56529563b3a79fa91268735cd59dc943d60029",
  "source": "pragma solidity ^0.4.24;\n\nimport \"./Insurance.sol\";\n\ncontract Phoenix is Insurance {\n  event LogEvent(string _log);\n\n  struct InsuranceTaker {\n    bool banned;\n    bool validAccount;\n    uint256 lastPayment;\n  }\n\n  mapping(address => InsuranceTaker) public insuranceTakers;\n\n  function makeInsurance() public payable {\n    InsuranceTaker storage customer = insuranceTakers[msg.sender];\n    require(!customer.banned, \"Should not be banned\");\n    require(msg.value > 1e17, \"Should be greater than 1e17 wei\");\n    customer.validAccount = true;\n  }\n\n  function isInsured(address insuranceTaker) public view returns (bool insured) {\n    InsuranceTaker storage customer = insuranceTakers[insuranceTaker];\n    return !customer.banned && customer.validAccount;\n  }\n\n  function getCurrentBalance() public returns (uint256 amount) {\n    emit LogEvent(\"Get current balance\");\n    return address(this).balance;\n  }\n\n  function getAmountFrom(address insuranceTaker) public payable {\n    emit LogEvent(\"Getting money\");\n\n    // 1 wei == 1e18\n    // Minimum insurance fee is 0.1 ETH\n    require(msg.value > 1e17, \"Need to send an amount bigger than 0.1 ETH\");\n    require(isInsured(insuranceTaker), \"Checking if insured\");\n\n  }\n\n  function claim() public {\n    require(isInsured(msg.sender), \"Checking if insured in claim()\");\n    msg.sender.transfer(0.1 ether);\n  }\n}\n",
  "sourcePath": "/Users/orhaneee/Desktop/anadolu-sigorta/truffle-contracts/contracts/Phoenix.sol",
  "compiler": {
    "name": "solc",
    "version": "0.4.24+commit.e67f0147.Emscripten.clang"
  },
  "schemaVersion": "2.0.1",
  "updatedAt": "2018-09-26T14:26:53.100Z"
}